{
  "_format": "hh-sol-artifact-1",
  "contractName": "WealthCoinGenesis",
  "sourceName": "contracts/WealthCoinGenesis.sol",
  "abi": [
    {
      "inputs": [
        {
          "internalType": "address",
          "name": "tokenAddress",
          "type": "address"
        },
        {
          "internalType": "address payable",
          "name": "treasuryAddress",
          "type": "address"
        },
        {
          "internalType": "address",
          "name": "publicReserveAddress",
          "type": "address"
        },
        {
          "internalType": "address",
          "name": "initialOwner",
          "type": "address"
        },
        {
          "internalType": "uint256[10]",
          "name": "rates",
          "type": "uint256[10]"
        },
        {
          "internalType": "uint256",
          "name": "minimumPurchase",
          "type": "uint256"
        },
        {
          "internalType": "uint256",
          "name": "walletMaximum",
          "type": "uint256"
        }
      ],
      "stateMutability": "nonpayable",
      "type": "constructor"
    },
    {
      "inputs": [
        {
          "internalType": "uint256",
          "name": "sent",
          "type": "uint256"
        },
        {
          "internalType": "uint256",
          "name": "minimum",
          "type": "uint256"
        }
      ],
      "name": "BelowMinimumPurchase",
      "type": "error"
    },
    {
      "inputs": [],
      "name": "CannotRecoverWealthCoinAsForeignToken",
      "type": "error"
    },
    {
      "inputs": [],
      "name": "DirectPaymentsDisabled",
      "type": "error"
    },
    {
      "inputs": [],
      "name": "EnforcedPause",
      "type": "error"
    },
    {
      "inputs": [],
      "name": "ExpectedPause",
      "type": "error"
    },
    {
      "inputs": [
        {
          "internalType": "uint256",
          "name": "balance",
          "type": "uint256"
        },
        {
          "internalType": "uint256",
          "name": "required",
          "type": "uint256"
        }
      ],
      "name": "InsufficientGenesisFunding",
      "type": "error"
    },
    {
      "inputs": [],
      "name": "InvalidPurchaseLimits",
      "type": "error"
    },
    {
      "inputs": [
        {
          "internalType": "uint256",
          "name": "stage",
          "type": "uint256"
        }
      ],
      "name": "InvalidStage",
      "type": "error"
    },
    {
      "inputs": [
        {
          "internalType": "uint256",
          "name": "stage",
          "type": "uint256"
        }
      ],
      "name": "InvalidStageRate",
      "type": "error"
    },
    {
      "inputs": [],
      "name": "NoTokensToRecover",
      "type": "error"
    },
    {
      "inputs": [],
      "name": "NothingAvailableForPurchase",
      "type": "error"
    },
    {
      "inputs": [
        {
          "internalType": "address",
          "name": "owner",
          "type": "address"
        }
      ],
      "name": "OwnableInvalidOwner",
      "type": "error"
    },
    {
      "inputs": [
        {
          "internalType": "address",
          "name": "account",
          "type": "address"
        }
      ],
      "name": "OwnableUnauthorizedAccount",
      "type": "error"
    },
    {
      "inputs": [],
      "name": "ReentrancyGuardReentrantCall",
      "type": "error"
    },
    {
      "inputs": [],
      "name": "RefundTransferFailed",
      "type": "error"
    },
    {
      "inputs": [
        {
          "internalType": "address",
          "name": "token",
          "type": "address"
        }
      ],
      "name": "SafeERC20FailedOperation",
      "type": "error"
    },
    {
      "inputs": [],
      "name": "SaleAlreadyFinalized",
      "type": "error"
    },
    {
      "inputs": [],
      "name": "SaleAlreadyOpen",
      "type": "error"
    },
    {
      "inputs": [],
      "name": "SaleAlreadyOpened",
      "type": "error"
    },
    {
      "inputs": [],
      "name": "SaleNotFinalized",
      "type": "error"
    },
    {
      "inputs": [],
      "name": "SaleNotOpen",
      "type": "error"
    },
    {
      "inputs": [
        {
          "internalType": "uint256",
          "name": "stage",
          "type": "uint256"
        }
      ],
      "name": "StageRatesMustDecrease",
      "type": "error"
    },
    {
      "inputs": [],
      "name": "TreasuryTransferFailed",
      "type": "error"
    },
    {
      "inputs": [
        {
          "internalType": "uint8",
          "name": "decimals",
          "type": "uint8"
        }
      ],
      "name": "UnsupportedTokenDecimals",
      "type": "error"
    },
    {
      "inputs": [
        {
          "internalType": "uint256",
          "name": "attemptedTotal",
          "type": "uint256"
        },
        {
          "internalType": "uint256",
          "name": "maximum",
          "type": "uint256"
        }
      ],
      "name": "WalletCapExceeded",
      "type": "error"
    },
    {
      "inputs": [],
      "name": "ZeroAddress",
      "type": "error"
    },
    {
      "anonymous": false,
      "inputs": [
        {
          "indexed": true,
          "internalType": "address",
          "name": "buyer",
          "type": "address"
        },
        {
          "indexed": false,
          "internalType": "uint256",
          "name": "amount",
          "type": "uint256"
        }
      ],
      "name": "ExcessPolRefunded",
      "type": "event"
    },
    {
      "anonymous": false,
      "inputs": [
        {
          "indexed": true,
          "internalType": "address",
          "name": "token",
          "type": "address"
        },
        {
          "indexed": true,
          "internalType": "address",
          "name": "recipient",
          "type": "address"
        },
        {
          "indexed": false,
          "internalType": "uint256",
          "name": "amount",
          "type": "uint256"
        }
      ],
      "name": "ForeignTokenRecovered",
      "type": "event"
    },
    {
      "anonymous": false,
      "inputs": [
        {
          "indexed": false,
          "internalType": "uint256",
          "name": "totalPolRaised",
          "type": "uint256"
        },
        {
          "indexed": false,
          "internalType": "uint256",
          "name": "totalWtcSold",
          "type": "uint256"
        },
        {
          "indexed": false,
          "internalType": "uint256",
          "name": "returnedToPublicAllocation",
          "type": "uint256"
        },
        {
          "indexed": false,
          "internalType": "uint256",
          "name": "timestamp",
          "type": "uint256"
        }
      ],
      "name": "GenesisFinalized",
      "type": "event"
    },
    {
      "anonymous": false,
      "inputs": [
        {
          "indexed": true,
          "internalType": "uint256",
          "name": "stage",
          "type": "uint256"
        },
        {
          "indexed": false,
          "internalType": "uint256",
          "name": "stageRate",
          "type": "uint256"
        },
        {
          "indexed": false,
          "internalType": "uint256",
          "name": "timestamp",
          "type": "uint256"
        }
      ],
      "name": "GenesisOpened",
      "type": "event"
    },
    {
      "anonymous": false,
      "inputs": [
        {
          "indexed": false,
          "internalType": "uint256",
          "name": "timestamp",
          "type": "uint256"
        }
      ],
      "name": "GenesisPaused",
      "type": "event"
    },
    {
      "anonymous": false,
      "inputs": [
        {
          "indexed": true,
          "internalType": "uint256",
          "name": "stage",
          "type": "uint256"
        },
        {
          "indexed": false,
          "internalType": "uint256",
          "name": "newStageEnd",
          "type": "uint256"
        },
        {
          "indexed": false,
          "internalType": "uint256",
          "name": "timestamp",
          "type": "uint256"
        }
      ],
      "name": "GenesisResumed",
      "type": "event"
    },
    {
      "anonymous": false,
      "inputs": [
        {
          "indexed": true,
          "internalType": "address",
          "name": "previousOwner",
          "type": "address"
        },
        {
          "indexed": true,
          "internalType": "address",
          "name": "newOwner",
          "type": "address"
        }
      ],
      "name": "OwnershipTransferred",
      "type": "event"
    },
    {
      "anonymous": false,
      "inputs": [
        {
          "indexed": false,
          "internalType": "address",
          "name": "account",
          "type": "address"
        }
      ],
      "name": "Paused",
      "type": "event"
    },
    {
      "anonymous": false,
      "inputs": [
        {
          "indexed": true,
          "internalType": "uint256",
          "name": "previousStage",
          "type": "uint256"
        },
        {
          "indexed": true,
          "internalType": "uint256",
          "name": "newStage",
          "type": "uint256"
        },
        {
          "indexed": false,
          "internalType": "uint256",
          "name": "newRate",
          "type": "uint256"
        },
        {
          "indexed": false,
          "internalType": "uint256",
          "name": "newStageStart",
          "type": "uint256"
        },
        {
          "indexed": false,
          "internalType": "uint256",
          "name": "newStageEnd",
          "type": "uint256"
        }
      ],
      "name": "StageAdvanced",
      "type": "event"
    },
    {
      "anonymous": false,
      "inputs": [
        {
          "indexed": true,
          "internalType": "uint256",
          "name": "stage",
          "type": "uint256"
        },
        {
          "indexed": false,
          "internalType": "uint256",
          "name": "wtcSold",
          "type": "uint256"
        },
        {
          "indexed": false,
          "internalType": "uint256",
          "name": "unsoldWtc",
          "type": "uint256"
        },
        {
          "indexed": false,
          "internalType": "enum WealthCoinGenesis.StageCloseReason",
          "name": "reason",
          "type": "uint8"
        },
        {
          "indexed": false,
          "internalType": "uint256",
          "name": "timestamp",
          "type": "uint256"
        }
      ],
      "name": "StageClosed",
      "type": "event"
    },
    {
      "anonymous": false,
      "inputs": [
        {
          "indexed": true,
          "internalType": "address",
          "name": "buyer",
          "type": "address"
        },
        {
          "indexed": true,
          "internalType": "uint256",
          "name": "stage",
          "type": "uint256"
        },
        {
          "indexed": false,
          "internalType": "uint256",
          "name": "stageRate",
          "type": "uint256"
        },
        {
          "indexed": false,
          "internalType": "uint256",
          "name": "polSpent",
          "type": "uint256"
        },
        {
          "indexed": false,
          "internalType": "uint256",
          "name": "wtcReceived",
          "type": "uint256"
        },
        {
          "indexed": false,
          "internalType": "uint256",
          "name": "cumulativePolSpent",
          "type": "uint256"
        },
        {
          "indexed": false,
          "internalType": "uint256",
          "name": "timestamp",
          "type": "uint256"
        }
      ],
      "name": "TokensPurchased",
      "type": "event"
    },
    {
      "anonymous": false,
      "inputs": [
        {
          "indexed": false,
          "internalType": "address",
          "name": "account",
          "type": "address"
        }
      ],
      "name": "Unpaused",
      "type": "event"
    },
    {
      "anonymous": false,
      "inputs": [
        {
          "indexed": true,
          "internalType": "address",
          "name": "publicReserve",
          "type": "address"
        },
        {
          "indexed": false,
          "internalType": "uint256",
          "name": "amount",
          "type": "uint256"
        }
      ],
      "name": "UnsoldTokensReturnedToPublicReserve",
      "type": "event"
    },
    {
      "stateMutability": "payable",
      "type": "fallback"
    },
    {
      "inputs": [],
      "name": "GENESIS_ALLOCATION_WTC",
      "outputs": [
        {
          "internalType": "uint256",
          "name": "",
          "type": "uint256"
        }
      ],
      "stateMutability": "view",
      "type": "function"
    },
    {
      "inputs": [],
      "name": "STAGE_ALLOCATION_WTC",
      "outputs": [
        {
          "internalType": "uint256",
          "name": "",
          "type": "uint256"
        }
      ],
      "stateMutability": "view",
      "type": "function"
    },
    {
      "inputs": [],
      "name": "STAGE_COUNT",
      "outputs": [
        {
          "internalType": "uint256",
          "name": "",
          "type": "uint256"
        }
      ],
      "stateMutability": "view",
      "type": "function"
    },
    {
      "inputs": [],
      "name": "STAGE_DURATION",
      "outputs": [
        {
          "internalType": "uint256",
          "name": "",
          "type": "uint256"
        }
      ],
      "stateMutability": "view",
      "type": "function"
    },
    {
      "inputs": [],
      "name": "buyTokens",
      "outputs": [],
      "stateMutability": "payable",
      "type": "function"
    },
    {
      "inputs": [
        {
          "internalType": "uint256",
          "name": "polAmount",
          "type": "uint256"
        }
      ],
      "name": "calculateTokenAmount",
      "outputs": [
        {
          "internalType": "uint256",
          "name": "",
          "type": "uint256"
        }
      ],
      "stateMutability": "view",
      "type": "function"
    },
    {
      "inputs": [
        {
          "internalType": "uint256",
          "name": "polAmount",
          "type": "uint256"
        },
        {
          "internalType": "uint256",
          "name": "stage",
          "type": "uint256"
        }
      ],
      "name": "calculateTokenAmountAtStage",
      "outputs": [
        {
          "internalType": "uint256",
          "name": "",
          "type": "uint256"
        }
      ],
      "stateMutability": "view",
      "type": "function"
    },
    {
      "inputs": [],
      "name": "currentRate",
      "outputs": [
        {
          "internalType": "uint256",
          "name": "",
          "type": "uint256"
        }
      ],
      "stateMutability": "view",
      "type": "function"
    },
    {
      "inputs": [],
      "name": "currentStage",
      "outputs": [
        {
          "internalType": "uint256",
          "name": "",
          "type": "uint256"
        }
      ],
      "stateMutability": "view",
      "type": "function"
    },
    {
      "inputs": [],
      "name": "currentStageEnd",
      "outputs": [
        {
          "internalType": "uint256",
          "name": "",
          "type": "uint256"
        }
      ],
      "stateMutability": "view",
      "type": "function"
    },
    {
      "inputs": [],
      "name": "currentStageStart",
      "outputs": [
        {
          "internalType": "uint256",
          "name": "",
          "type": "uint256"
        }
      ],
      "stateMutability": "view",
      "type": "function"
    },
    {
      "inputs": [],
      "name": "finalizeGenesis",
      "outputs": [],
      "stateMutability": "nonpayable",
      "type": "function"
    },
    {
      "inputs": [],
      "name": "genesisAllocation",
      "outputs": [
        {
          "internalType": "uint256",
          "name": "",
          "type": "uint256"
        }
      ],
      "stateMutability": "view",
      "type": "function"
    },
    {
      "inputs": [],
      "name": "getCurrentStageDetails",
      "outputs": [
        {
          "internalType": "uint256",
          "name": "stage",
          "type": "uint256"
        },
        {
          "internalType": "uint256",
          "name": "rate",
          "type": "uint256"
        },
        {
          "internalType": "uint256",
          "name": "allocation",
          "type": "uint256"
        },
        {
          "internalType": "uint256",
          "name": "sold",
          "type": "uint256"
        },
        {
          "internalType": "uint256",
          "name": "remaining",
          "type": "uint256"
        },
        {
          "internalType": "uint256",
          "name": "startTime",
          "type": "uint256"
        },
        {
          "internalType": "uint256",
          "name": "endTime",
          "type": "uint256"
        }
      ],
      "stateMutability": "view",
      "type": "function"
    },
    {
      "inputs": [
        {
          "internalType": "uint256",
          "name": "stage",
          "type": "uint256"
        }
      ],
      "name": "getStageDetails",
      "outputs": [
        {
          "internalType": "uint256",
          "name": "rate",
          "type": "uint256"
        },
        {
          "internalType": "uint256",
          "name": "allocation",
          "type": "uint256"
        },
        {
          "internalType": "uint256",
          "name": "sold",
          "type": "uint256"
        },
        {
          "internalType": "uint256",
          "name": "unsold",
          "type": "uint256"
        },
        {
          "internalType": "bool",
          "name": "closed",
          "type": "bool"
        }
      ],
      "stateMutability": "view",
      "type": "function"
    },
    {
      "inputs": [],
      "name": "hasOpened",
      "outputs": [
        {
          "internalType": "bool",
          "name": "",
          "type": "bool"
        }
      ],
      "stateMutability": "view",
      "type": "function"
    },
    {
      "inputs": [],
      "name": "isFullyFunded",
      "outputs": [
        {
          "internalType": "bool",
          "name": "",
          "type": "bool"
        }
      ],
      "stateMutability": "view",
      "type": "function"
    },
    {
      "inputs": [],
      "name": "maxPurchasePerWallet",
      "outputs": [
        {
          "internalType": "uint256",
          "name": "",
          "type": "uint256"
        }
      ],
      "stateMutability": "view",
      "type": "function"
    },
    {
      "inputs": [],
      "name": "minPurchase",
      "outputs": [
        {
          "internalType": "uint256",
          "name": "",
          "type": "uint256"
        }
      ],
      "stateMutability": "view",
      "type": "function"
    },
    {
      "inputs": [],
      "name": "openGenesis",
      "outputs": [],
      "stateMutability": "nonpayable",
      "type": "function"
    },
    {
      "inputs": [],
      "name": "owner",
      "outputs": [
        {
          "internalType": "address",
          "name": "",
          "type": "address"
        }
      ],
      "stateMutability": "view",
      "type": "function"
    },
    {
      "inputs": [],
      "name": "pauseGenesis",
      "outputs": [],
      "stateMutability": "nonpayable",
      "type": "function"
    },
    {
      "inputs": [],
      "name": "paused",
      "outputs": [
        {
          "internalType": "bool",
          "name": "",
          "type": "bool"
        }
      ],
      "stateMutability": "view",
      "type": "function"
    },
    {
      "inputs": [],
      "name": "pausedAt",
      "outputs": [
        {
          "internalType": "uint256",
          "name": "",
          "type": "uint256"
        }
      ],
      "stateMutability": "view",
      "type": "function"
    },
    {
      "inputs": [
        {
          "internalType": "address",
          "name": "",
          "type": "address"
        }
      ],
      "name": "polPurchasedByWallet",
      "outputs": [
        {
          "internalType": "uint256",
          "name": "",
          "type": "uint256"
        }
      ],
      "stateMutability": "view",
      "type": "function"
    },
    {
      "inputs": [],
      "name": "publicReserve",
      "outputs": [
        {
          "internalType": "address",
          "name": "",
          "type": "address"
        }
      ],
      "stateMutability": "view",
      "type": "function"
    },
    {
      "inputs": [
        {
          "internalType": "address",
          "name": "tokenAddress",
          "type": "address"
        },
        {
          "internalType": "address",
          "name": "recipient",
          "type": "address"
        }
      ],
      "name": "recoverForeignToken",
      "outputs": [],
      "stateMutability": "nonpayable",
      "type": "function"
    },
    {
      "inputs": [],
      "name": "remainingAllocation",
      "outputs": [
        {
          "internalType": "uint256",
          "name": "",
          "type": "uint256"
        }
      ],
      "stateMutability": "view",
      "type": "function"
    },
    {
      "inputs": [],
      "name": "remainingCurrentStageAllocation",
      "outputs": [
        {
          "internalType": "uint256",
          "name": "",
          "type": "uint256"
        }
      ],
      "stateMutability": "view",
      "type": "function"
    },
    {
      "inputs": [
        {
          "internalType": "address",
          "name": "buyer",
          "type": "address"
        }
      ],
      "name": "remainingWalletAllowance",
      "outputs": [
        {
          "internalType": "uint256",
          "name": "",
          "type": "uint256"
        }
      ],
      "stateMutability": "view",
      "type": "function"
    },
    {
      "inputs": [],
      "name": "renounceOwnership",
      "outputs": [],
      "stateMutability": "nonpayable",
      "type": "function"
    },
    {
      "inputs": [],
      "name": "resumeGenesis",
      "outputs": [],
      "stateMutability": "nonpayable",
      "type": "function"
    },
    {
      "inputs": [],
      "name": "returnUnsoldTokensToPublicReserve",
      "outputs": [],
      "stateMutability": "nonpayable",
      "type": "function"
    },
    {
      "inputs": [],
      "name": "saleFinalized",
      "outputs": [
        {
          "internalType": "bool",
          "name": "",
          "type": "bool"
        }
      ],
      "stateMutability": "view",
      "type": "function"
    },
    {
      "inputs": [],
      "name": "saleOpen",
      "outputs": [
        {
          "internalType": "bool",
          "name": "",
          "type": "bool"
        }
      ],
      "stateMutability": "view",
      "type": "function"
    },
    {
      "inputs": [],
      "name": "stageAllocation",
      "outputs": [
        {
          "internalType": "uint256",
          "name": "",
          "type": "uint256"
        }
      ],
      "stateMutability": "view",
      "type": "function"
    },
    {
      "inputs": [
        {
          "internalType": "uint256",
          "name": "",
          "type": "uint256"
        }
      ],
      "name": "stageClosed",
      "outputs": [
        {
          "internalType": "bool",
          "name": "",
          "type": "bool"
        }
      ],
      "stateMutability": "view",
      "type": "function"
    },
    {
      "inputs": [
        {
          "internalType": "uint256",
          "name": "",
          "type": "uint256"
        }
      ],
      "name": "stageRates",
      "outputs": [
        {
          "internalType": "uint256",
          "name": "",
          "type": "uint256"
        }
      ],
      "stateMutability": "view",
      "type": "function"
    },
    {
      "inputs": [
        {
          "internalType": "uint256",
          "name": "",
          "type": "uint256"
        }
      ],
      "name": "stageUnsoldWtc",
      "outputs": [
        {
          "internalType": "uint256",
          "name": "",
          "type": "uint256"
        }
      ],
      "stateMutability": "view",
      "type": "function"
    },
    {
      "inputs": [
        {
          "internalType": "uint256",
          "name": "",
          "type": "uint256"
        }
      ],
      "name": "stageWtcSold",
      "outputs": [
        {
          "internalType": "uint256",
          "name": "",
          "type": "uint256"
        }
      ],
      "stateMutability": "view",
      "type": "function"
    },
    {
      "inputs": [],
      "name": "syncStages",
      "outputs": [],
      "stateMutability": "nonpayable",
      "type": "function"
    },
    {
      "inputs": [],
      "name": "tokenUnit",
      "outputs": [
        {
          "internalType": "uint256",
          "name": "",
          "type": "uint256"
        }
      ],
      "stateMutability": "view",
      "type": "function"
    },
    {
      "inputs": [],
      "name": "totalPolRaised",
      "outputs": [
        {
          "internalType": "uint256",
          "name": "",
          "type": "uint256"
        }
      ],
      "stateMutability": "view",
      "type": "function"
    },
    {
      "inputs": [],
      "name": "totalWtcReturnedToPublicAllocation",
      "outputs": [
        {
          "internalType": "uint256",
          "name": "",
          "type": "uint256"
        }
      ],
      "stateMutability": "view",
      "type": "function"
    },
    {
      "inputs": [],
      "name": "totalWtcSold",
      "outputs": [
        {
          "internalType": "uint256",
          "name": "",
          "type": "uint256"
        }
      ],
      "stateMutability": "view",
      "type": "function"
    },
    {
      "inputs": [
        {
          "internalType": "address",
          "name": "newOwner",
          "type": "address"
        }
      ],
      "name": "transferOwnership",
      "outputs": [],
      "stateMutability": "nonpayable",
      "type": "function"
    },
    {
      "inputs": [],
      "name": "treasury",
      "outputs": [
        {
          "internalType": "address payable",
          "name": "",
          "type": "address"
        }
      ],
      "stateMutability": "view",
      "type": "function"
    },
    {
      "inputs": [],
      "name": "wealthCoin",
      "outputs": [
        {
          "internalType": "contract IERC20",
          "name": "",
          "type": "address"
        }
      ],
      "stateMutability": "view",
      "type": "function"
    },
    {
      "inputs": [
        {
          "internalType": "address",
          "name": "",
          "type": "address"
        }
      ],
      "name": "wtcPurchasedByWallet",
      "outputs": [
        {
          "internalType": "uint256",
          "name": "",
          "type": "uint256"
        }
      ],
      "stateMutability": "view",
      "type": "function"
    },
    {
      "stateMutability": "payable",
      "type": "receive"
    }
  ],
  "bytecode": "0x6101806040523480156200001257600080fd5b5060405162002d0338038062002d03833981016040819052620000359162000447565b836001600160a01b0381166200006657604051631e4fbdf760e01b8152600060048201526024015b60405180910390fd5b620000718162000330565b5060017f9b779b17422d0df92223018b32b4d1fa46e071723d6817e2486d003becc55f00556001600160a01b0387161580620000b457506001600160a01b038616155b80620000c757506001600160a01b038516155b80620000da57506001600160a01b038416155b15620000f95760405163d92e233d60e01b815260040160405180910390fd5b8115806200010657508181105b156200012557604051632ac9fa0f60e01b815260040160405180910390fd5b6000876001600160a01b031663313ce5676040518163ffffffff1660e01b8152600401602060405180830381865afa15801562000166573d6000803e3d6000fd5b505050506040513d601f19601f820116820180604052508101906200018c919062000539565b905060128160ff161115620001ba5760405163108d860b60e31b815260ff821660048201526024016200005d565b60005b600a811015620002b3578481600a8110620001dc57620001dc62000565565b60200201516000036200020657604051635c75a95f60e01b8152600481018290526024016200005d565b600081118015620002555750846200022060018362000591565b600a811062000233576200023362000565565b60200201518582600a81106200024d576200024d62000565565b602002015110155b156200027857604051639ecc008d60e01b8152600481018290526024016200005d565b8481600a81106200028d576200028d62000565565b6020020151600182600a8110620002a857620002a862000565565b0155600101620001bd565b506001600160a01b0380891660805287811660a052861660c052620002dd60ff8216600a620006aa565b60e0819052620002f2906301406f40620006b8565b6101005260e051620003089062200b20620006b8565b610120526101408390526101608290526200032262000380565b5050505050505050620006d2565b600080546001600160a01b038381166001600160a01b0319831681178455604051919092169283917f8be0079c531659141344cd1fd0a4f28419497f9722a3daafe3b4186f6b6457e09190a35050565b6200038a620003e3565b6000805460ff60a01b1916600160a01b1790557f62e78cea01bee320cd4e420270b5ea74000d11b0c9f74754ebdbfc544b05a258620003c63390565b6040516001600160a01b03909116815260200160405180910390a1565b620003f7600054600160a01b900460ff1690565b15620004165760405163d93c066560e01b815260040160405180910390fd5b565b6001600160a01b03811681146200042e57600080fd5b50565b634e487b7160e01b600052604160045260246000fd5b6000806000806000806000610200888a0312156200046457600080fd5b8751620004718162000418565b80975050602080890151620004868162000418565b60408a0151909750620004998162000418565b60608a0151909650620004ac8162000418565b9450609f89018a13620004be57600080fd5b60405161014081016001600160401b0381118282101715620004e457620004e462000431565b604052806101c08b018c811115620004fb57600080fd5b60808c015b8181101562000519578051835291840191840162000500565b5082965080519550505050506101e0880151905092959891949750929550565b6000602082840312156200054c57600080fd5b815160ff811681146200055e57600080fd5b9392505050565b634e487b7160e01b600052603260045260246000fd5b634e487b7160e01b600052601160045260246000fd5b81810381811115620005a757620005a76200057b565b92915050565b600181815b80851115620005ee578160001904821115620005d257620005d26200057b565b80851615620005e057918102915b93841c9390800290620005b2565b509250929050565b6000826200060757506001620005a7565b816200061657506000620005a7565b81600181146200062f57600281146200063a576200065a565b6001915050620005a7565b60ff8411156200064e576200064e6200057b565b50506001821b620005a7565b5060208310610133831016604e8410600b84101617156200067f575081810a620005a7565b6200068b8383620005ad565b8060001904821115620006a257620006a26200057b565b029392505050565b60006200055e8383620005f6565b8082028115828204841417620005a757620005a76200057b565b60805160a05160c05160e05161010051610120516101405161016051612507620007fc600039600081816105be01528181610c6c01528181610ca0015281816114920152818161166b01526116a70152600081816104690152818161139f01526113da0152600081816108fd0152818161096101528181610a400152818161192601528181611a1c01528181611de801526120f701526000818161043501528181610c1e015281816110470152818161123a01526112760152600061085f0152600081816104b201528181610f290152610f5001526000818161058a015261179c0152600081816104fe01528181610ab601528181610e6401528181610f0701528181611095015281816111c3015281816115ac015281816117710152611b6101526125076000f3fe6080604052600436106102b25760003560e01c806385758cc711610175578063c33466d7116100dc578063e44723af11610095578063f2fde38b1161006f578063f2fde38b146108cb578063f6b68d4d146108eb578063f7702fa91461091f578063f9f8bdb714610934576102d0565b8063e44723af14610838578063e93c980d1461084d578063f18e650a14610881576102d0565b8063c33466d7146107b9578063c54dcc57146107d0578063c876b6d0146107e5578063c8cb738e146107fa578063cd1939c914610810578063d0febe4c14610830576102d0565b8063a5f0dea21161012e578063a5f0dea214610715578063a6e1c50914610735578063aba94f1214610755578063aebc34e414610775578063b577d02c1461078a578063be8eef8e1461079f576102d0565b806385758cc7146106795780638da5cb5b1461068e57806399288dbb146106ac578063a24bcf46146106cb578063a2e684b2146106eb578063a5b00ce314610700576102d0565b806351409506116102195780636cfa8bd8116101d25780636cfa8bd8146105e0578063715018a61461060057806376a7c296146106155780637a9ccb4f1461062b5780638477ff3b146106435780638558c29014610659576102d0565b806351409506146104ec57806351f9efde146105205780635bf5d54c146105375780635c975abb1461054d57806361d027b31461057857806363800092146105ac576102d0565b80632f146e901161026b5780632f146e90146103d45780632f8b532e146103f657806332f1eb761461042357806333b5b62e146104575780633dc9dc9c1461048b578063444e664a146104a0576102d0565b80630c35e402146102e957806311747583146103385780631243cfee146103735780632c442993146103935780632c8b1a0a146103a85780632e55d0f2146103be576102d0565b366102d05760405163260a0f3760e01b815260040160405180910390fd5b60405163260a0f3760e01b815260040160405180910390fd5b3480156102f557600080fd5b506102fe610949565b604080519788526020880196909652948601939093526060850191909152608084015260a083015260c082015260e0015b60405180910390f35b34801561034457600080fd5b50610365610353366004612346565b60286020526000908152604090205481565b60405190815260200161032f565b34801561037f57600080fd5b5061036561038e366004612361565b6109c0565b34801561039f57600080fd5b506103656109d7565b3480156103b457600080fd5b5061036560255481565b3480156103ca57600080fd5b5061036560225481565b3480156103e057600080fd5b506103f46103ef36600461237a565b610a69565b005b34801561040257600080fd5b50610365610411366004612346565b60276020526000908152604090205481565b34801561042f57600080fd5b506103657f000000000000000000000000000000000000000000000000000000000000000081565b34801561046357600080fd5b506103657f000000000000000000000000000000000000000000000000000000000000000081565b34801561049757600080fd5b50610365610c14565b3480156104ac57600080fd5b506104d47f000000000000000000000000000000000000000000000000000000000000000081565b6040516001600160a01b03909116815260200161032f565b3480156104f857600080fd5b506104d47f000000000000000000000000000000000000000000000000000000000000000081565b34801561052c57600080fd5b5061036562093a8081565b34801561054357600080fd5b5061036560205481565b34801561055957600080fd5b50600054600160a01b900460ff165b604051901515815260200161032f565b34801561058457600080fd5b506104d47f000000000000000000000000000000000000000000000000000000000000000081565b3480156105b857600080fd5b506103657f000000000000000000000000000000000000000000000000000000000000000081565b3480156105ec57600080fd5b506103656105fb366004612346565b610c51565b34801561060c57600080fd5b506103f4610ccb565b34801561062157600080fd5b5061036560245481565b34801561063757600080fd5b506103656301406f4081565b34801561064f57600080fd5b5061036560265481565b34801561066557600080fd5b50610365610674366004612361565b610cdf565b34801561068557600080fd5b506103f4610cef565b34801561069a57600080fd5b506000546001600160a01b03166104d4565b3480156106b857600080fd5b5060235461056890610100900460ff1681565b3480156106d757600080fd5b506103656106e6366004612361565b610d54565b3480156106f757600080fd5b506103f4610d81565b34801561070c57600080fd5b506103f4610e13565b34801561072157600080fd5b506023546105689062010000900460ff1681565b34801561074157600080fd5b506103656107503660046123ad565b610fc9565b34801561076157600080fd5b50610365610770366004612361565b611026565b34801561078157600080fd5b50610568611036565b34801561079657600080fd5b50610365600a81565b3480156107ab57600080fd5b506023546105689060ff1681565b3480156107c557600080fd5b5061036562200b2081565b3480156107dc57600080fd5b50610365611108565b3480156107f157600080fd5b506103f461112c565b34801561080657600080fd5b5061036560215481565b34801561081c57600080fd5b5061056861082b366004612361565b611326565b6103f4611350565b34801561084457600080fd5b506103f461198c565b34801561085957600080fd5b506103657f000000000000000000000000000000000000000000000000000000000000000081565b34801561088d57600080fd5b506108a161089c366004612361565b6119d9565b6040805195865260208601949094529284019190915260608301521515608082015260a00161032f565b3480156108d757600080fd5b506103f46108e6366004612346565b611aa1565b3480156108f757600080fd5b506103657f000000000000000000000000000000000000000000000000000000000000000081565b34801561092b57600080fd5b506103f4611adf565b34801561094057600080fd5b50610365611ca0565b600080600080600080600060205461095f611ca0565b7f0000000000000000000000000000000000000000000000000000000000000000600b602054600a8110610995576109956123cf565b015461099f6109d7565b6021546109aa611108565b959d949c50929a50909850965094509092509050565b600b81600a81106109d057600080fd5b0154905081565b60235460009062010000900460ff1680610a185750601f602054600a8110610a0157610a016123cf565b602081049091015460ff601f9092166101000a9004165b15610a235750600090565b600b602054600a8110610a3857610a386123cf565b0154610a64907f00000000000000000000000000000000000000000000000000000000000000006123fb565b905090565b610a71611cbe565b610a79611ceb565b6001600160a01b0382161580610a9657506001600160a01b038116155b15610ab45760405163d92e233d60e01b815260040160405180910390fd5b7f00000000000000000000000000000000000000000000000000000000000000006001600160a01b0316826001600160a01b031603610b06576040516379bbd8d160e01b815260040160405180910390fd5b6040516370a0823160e01b815230600482015282906000906001600160a01b038316906370a0823190602401602060405180830381865afa158015610b4f573d6000803e3d6000fd5b505050506040513d601f19601f82011682018060405250810190610b73919061240e565b905080600003610b9657604051635e4f582160e11b815260040160405180910390fd5b610baa6001600160a01b0383168483611d07565b826001600160a01b0316846001600160a01b03167fe75797be6bca4892dff387b21838426edbc9926d3cabb9df3964a98708b0612b83604051610bef91815260200190565b60405180910390a35050610c1060016000805160206124b283398151915255565b5050565b60006026546025547f0000000000000000000000000000000000000000000000000000000000000000610c4791906123fb565b610a6491906123fb565b6001600160a01b0381166000908152602760205260408120547f00000000000000000000000000000000000000000000000000000000000000008110610c9a5750600092915050565b610cc4817f00000000000000000000000000000000000000000000000000000000000000006123fb565b9392505050565b610cd3611cbe565b610cdd6000611d41565b565b600181600a81106109d057600080fd5b610cf7611cbe565b60235462010000900460ff1615610d21576040516391702baf60e01b815260040160405180910390fd5b60235460ff16610d4457604051631117739360e21b815260040160405180910390fd5b610d4c611d91565b610cdd611ed0565b6000670de0b6b3a7640000610d67611ca0565b610d719084612427565b610d7b919061243e565b92915050565b610d89611cbe565b602354610100900460ff161580610da8575060235462010000900460ff165b15610dc657604051631117739360e21b815260040160405180910390fd5b6023805461ff001916905542602255610ddd611f60565b6040514281527f0b8658df8d34d1c407c08684dda88017c4bb9063b99caabc2c02a6e2716fe4a7906020015b60405180910390a1565b610e1b611cbe565b610e23611ceb565b60235462010000900460ff16610e4c576040516303ba962560e51b815260040160405180910390fd5b6040516370a0823160e01b81523060048201526000907f00000000000000000000000000000000000000000000000000000000000000006001600160a01b0316906370a0823190602401602060405180830381865afa158015610eb3573d6000803e3d6000fd5b505050506040513d601f19601f82011682018060405250810190610ed7919061240e565b905080600003610efa57604051635e4f582160e11b815260040160405180910390fd5b610f4e6001600160a01b037f0000000000000000000000000000000000000000000000000000000000000000167f000000000000000000000000000000000000000000000000000000000000000083611d07565b7f00000000000000000000000000000000000000000000000000000000000000006001600160a01b03167f1eeb5ea2a685b4c5e3ce30add4ff9fc451819eed32a046f351e34453e15be6ff82604051610fa991815260200190565b60405180910390a250610cdd60016000805160206124b283398151915255565b6000600a8210610ff45760405163213975eb60e01b8152600481018390526024015b60405180910390fd5b670de0b6b3a7640000600183600a8110611010576110106123cf565b015461101c9085612427565b610cc4919061243e565b601581600a81106109d057600080fd5b602354600090819060ff1661106b577f0000000000000000000000000000000000000000000000000000000000000000611073565b611073610c14565b6040516370a0823160e01b815230600482015290915081906001600160a01b037f000000000000000000000000000000000000000000000000000000000000000016906370a0823190602401602060405180830381865afa1580156110dc573d6000803e3d6000fd5b505050506040513d601f19601f82011682018060405250810190611100919061240e565b101591505090565b60235460009060ff1661111b5750600090565b62093a80602154610a649190612460565b611134611cbe565b60235462010000900460ff161561115e576040516391702baf60e01b815260040160405180910390fd5b60235460ff1615611182576040516367d8dbd560e01b815260040160405180910390fd5b602354610100900460ff16156111ab576040516396ebe02960e01b815260040160405180910390fd5b6040516370a0823160e01b81523060048201526000907f00000000000000000000000000000000000000000000000000000000000000006001600160a01b0316906370a0823190602401602060405180830381865afa158015611212573d6000803e3d6000fd5b505050506040513d601f19601f82011682018060405250810190611236919061240e565b90507f00000000000000000000000000000000000000000000000000000000000000008110156112a257604051634a0a498960e01b8152600481018290527f00000000000000000000000000000000000000000000000000000000000000006024820152604401610feb565b6023805461ffff1916610101179055600060208190554260215554600160a01b900460ff16156112d4576112d4611fbb565b6020547f22ef4dd4c143d92350bfa6f59f178fd40881d1f669c6ea6cfa3957124022af08600182600a811061130b5761130b6123cf565b0154604080519182524260208301520160405180910390a250565b601f81600a811061133657600080fd5b60209182820401919006915054906101000a900460ff1681565b611358611ceb565b611360611ff7565b602354610100900460ff16158061137f575060235462010000900460ff165b1561139d57604051631117739360e21b815260040160405180910390fd5b7f00000000000000000000000000000000000000000000000000000000000000003410156114065760405163032861c760e41b81523460048201527f00000000000000000000000000000000000000000000000000000000000000006024820152604401610feb565b61140e612022565b602354610100900460ff16158061142d575060235462010000900460ff165b1561144b57604051631117739360e21b815260040160405180910390fd5b600061145633610c51565b9050803411156114be573360009081526027602052604090205461147b903490612460565b604051638951540b60e01b815260048101919091527f00000000000000000000000000000000000000000000000000000000000000006024820152604401610feb565b60006114c86109d7565b9050806000036114eb576040516356d6ae0360e01b815260040160405180910390fd5b60006001602054600a8110611502576115026123cf565b015490506000670de0b6b3a764000061151b8334612427565b611525919061243e565b9050600080600085841161153e5734925083915061156b565b85915061155c61155683670de0b6b3a7640000612427565b86612077565b925061156883346123fb565b90505b811580611576575082155b15611594576040516356d6ae0360e01b815260040160405180910390fd5b6040516370a0823160e01b81523060048201526000907f00000000000000000000000000000000000000000000000000000000000000006001600160a01b0316906370a0823190602401602060405180830381865afa1580156115fb573d6000803e3d6000fd5b505050506040513d601f19601f8201168201806040525081019061161f919061240e565b90508281101561164c57604051634a0a498960e01b81526004810182905260248101849052604401610feb565b33600090815260276020526040812054611667908690612460565b90507f00000000000000000000000000000000000000000000000000000000000000008111156116d357604051638951540b60e01b8152600481018290527f00000000000000000000000000000000000000000000000000000000000000006024820152604401610feb565b602080543360009081526027835260408082208590556028909352918220805491928792611702908490612460565b90915550859050600b82600a811061171c5761171c6123cf565b01600082825461172c9190612460565b9250508190555085602460008282546117459190612460565b92505081905550846025600082825461175e9190612460565b9091555061179890506001600160a01b037f0000000000000000000000000000000000000000000000000000000000000000163387611d07565b60007f00000000000000000000000000000000000000000000000000000000000000006001600160a01b03168760405160006040518083038185875af1925050503d8060008114611805576040519150601f19603f3d011682016040523d82523d6000602084013e61180a565b606091505b505090508061182c576040516301c6e79f60e31b815260040160405180910390fd5b84156118d257604051600090339087908381818185875af1925050503d8060008114611874576040519150601f19603f3d011682016040523d82523d6000602084013e611879565b606091505b505090508061189b5760405163cbe4e8c360e01b815260040160405180910390fd5b60405186815233907f4508c454f69951d0821226b68a302166b4a502899e258fae2faa3cc252f98d499060200160405180910390a2505b604080518a81526020810189905290810187905260608101849052426080820152829033907fb176b33ad40225c8f67dc6ef0cba96c0c88f67afd36396e2198a3f48a44fc7a09060a00160405180910390a37f0000000000000000000000000000000000000000000000000000000000000000600b83600a8110611958576119586123cf565b01541061196a5761196a6000426120aa565b5050505050505050505050610cdd60016000805160206124b283398151915255565b611994611ff7565b602354610100900460ff1615806119b3575060235462010000900460ff165b156119d157604051631117739360e21b815260040160405180910390fd5b610cdd612022565b6000806000806000600a8610611a055760405163213975eb60e01b815260048101879052602401610feb565b600186600a8110611a1857611a186123cf565b01547f0000000000000000000000000000000000000000000000000000000000000000600b88600a8110611a4e57611a4e6123cf565b0154601589600a8110611a6357611a636123cf565b0154601f8a600a8110611a7857611a786123cf565b602091828204019190069054906101000a900460ff169450945094509450945091939590929450565b611aa9611cbe565b6001600160a01b038116611ad357604051631e4fbdf760e01b815260006004820152602401610feb565b611adc81611d41565b50565b611ae7611cbe565b60235462010000900460ff1615611b11576040516391702baf60e01b815260040160405180910390fd5b60235460ff16611b3457604051631117739360e21b815260040160405180910390fd5b6000611b3e610c14565b6040516370a0823160e01b81523060048201529091506000906001600160a01b037f000000000000000000000000000000000000000000000000000000000000000016906370a0823190602401602060405180830381865afa158015611ba8573d6000803e3d6000fd5b505050506040513d601f19601f82011682018060405250810190611bcc919061240e565b905081811015611bf957604051634a0a498960e01b81526004810182905260248101839052604401610feb565b60225415611c2557602254611c0e90426123fb565b60216000828254611c1f9190612460565b90915550505b60006022556023805461ff001916610100179055611c4d60005460ff600160a01b9091041690565b15611c5a57611c5a611fbb565b6020547fa606c06add30e6970ee24beb6973a8a7e810e3aa19d5f8997fb0fd5d62395167611c86611108565b604080519182524260208301520160405180910390a25050565b60006001602054600a8110611cb757611cb76123cf565b0154905090565b6000546001600160a01b03163314610cdd5760405163118cdaa760e01b8152336004820152602401610feb565b611cf361226a565b60026000805160206124b283398151915255565b611d14838383600161229a565b611d3c57604051635274afe760e01b81526001600160a01b0384166004820152602401610feb565b505050565b600080546001600160a01b038381166001600160a01b0319831681178455604051919092169283917f8be0079c531659141344cd1fd0a4f28419497f9722a3daafe3b4186f6b6457e09190a35050565b6020545b600a811015611adc57601f81600a8110611db157611db16123cf565b602081049091015460ff601f9092166101000a900416611ec8576000600b82600a8110611de057611de06123cf565b0154611e0c907f00000000000000000000000000000000000000000000000000000000000000006123fb565b90506001601f83600a8110611e2357611e236123cf565b602091828204019190066101000a81548160ff02191690831515021790555080601583600a8110611e5657611e566123cf565b01819055508060266000828254611e6d9190612460565b909155508290507fb0afc63a7aa6dc32cbee052337ffc53479611620e77b4c65abe711b1737cdd51600b82600a8110611ea857611ea86123cf565b015483600242604051611ebe9493929190612473565b60405180910390a2505b600101611d95565b60235462010000900460ff1615611ee357565b6023805462ffff00191662010000179055611f0860005460ff600160a01b9091041690565b611f1457611f14611f60565b602454602554602654604080519384526020840192909252908201524260608201527f8205bff418db2770daf5692834323cd5fef9c246041368d5f46c45c6035acf1290608001610e09565b611f68611ff7565b6000805460ff60a01b1916600160a01b1790557f62e78cea01bee320cd4e420270b5ea74000d11b0c9f74754ebdbfc544b05a258611fa33390565b6040516001600160a01b039091168152602001610e09565b611fc3612300565b6000805460ff60a01b191690557f5db9ee0a495bf2e6ff9c91a7834c1ba4fdd244a5e8aa4e537bd38aeae4b073aa33611fa3565b600054600160a01b900460ff1615610cdd5760405163d93c066560e01b815260040160405180910390fd5b602354610100900460ff168015612042575060235462010000900460ff16155b80156120555750612051611108565b4210155b15610cdd576000612064611108565b90506120716001826120aa565b50612022565b60008260000361208957506000610d7b565b816120956001856123fb565b61209f919061243e565b610cc4906001612460565b602054601f81600a81106120c0576120c06123cf565b602081049091015460ff601f9092166101000a9004166121d6576000600b82600a81106120ef576120ef6123cf565b015461211b907f00000000000000000000000000000000000000000000000000000000000000006123fb565b90506001601f83600a8110612132576121326123cf565b602091828204019190066101000a81548160ff02191690831515021790555080601583600a8110612165576121656123cf565b0181905550806026600082825461217c9190612460565b909155508290507fb0afc63a7aa6dc32cbee052337ffc53479611620e77b4c65abe711b1737cdd51600b82600a81106121b7576121b76123cf565b01548387426040516121cc9493929190612473565b60405180910390a2505b6121e26001600a6123fb565b81036121f057611d3c611ed0565b6121fb816001612460565b60208190556021839055817f0ba68163c54e6db3de67929566a05f2a0de3168ac636a58e3cd6152fee8b2099600183600a811061223a5761223a6123cf565b0154602154612247611108565b6040805193845260208401929092529082015260600160405180910390a3505050565b6000805160206124b283398151915254600203610cdd57604051633ee5aeb560e01b815260040160405180910390fd5b60405163a9059cbb60e01b60008181526001600160a01b038616600452602485905291602083604481808b5af1925060016000511483166122f45783831516156122e7573d6000823e3d81fd5b6000873b113d1516831692505b60405250949350505050565b600054600160a01b900460ff16610cdd57604051638dfc202b60e01b815260040160405180910390fd5b80356001600160a01b038116811461234157600080fd5b919050565b60006020828403121561235857600080fd5b610cc48261232a565b60006020828403121561237357600080fd5b5035919050565b6000806040838503121561238d57600080fd5b6123968361232a565b91506123a46020840161232a565b90509250929050565b600080604083850312156123c057600080fd5b50508035926020909101359150565b634e487b7160e01b600052603260045260246000fd5b634e487b7160e01b600052601160045260246000fd5b81810381811115610d7b57610d7b6123e5565b60006020828403121561242057600080fd5b5051919050565b8082028115828204841417610d7b57610d7b6123e5565b60008261245b57634e487b7160e01b600052601260045260246000fd5b500490565b80820180821115610d7b57610d7b6123e5565b84815260208101849052608081016003841061249f57634e487b7160e01b600052602160045260246000fd5b6040820193909352606001529291505056fe9b779b17422d0df92223018b32b4d1fa46e071723d6817e2486d003becc55f00a26469706673582212208700700c3eccf9891679287190c6a013de23ee2da11edb4ce847402c859dd23064736f6c63430008180033",
  "linkReferences": {},
  "deployedLinkReferences": {}
}