{
  "_format": "hh-sol-artifact-1",
  "contractName": "WealthCoinGenesis",
  "sourceName": "contracts/WealthCoinGenesis.sol",
  "abi": [
    {
      "inputs": [
        {
          "internalType": "address",
          "name": "tokenAddress",
          "type": "address"
        },
        {
          "internalType": "address payable",
          "name": "treasuryAddress",
          "type": "address"
        },
        {
          "internalType": "address",
          "name": "initialOwner",
          "type": "address"
        }
      ],
      "stateMutability": "nonpayable",
      "type": "constructor"
    },
    {
      "inputs": [
        {
          "internalType": "uint256",
          "name": "requested",
          "type": "uint256"
        },
        {
          "internalType": "uint256",
          "name": "remaining",
          "type": "uint256"
        }
      ],
      "name": "AllocationExceeded",
      "type": "error"
    },
    {
      "inputs": [
        {
          "internalType": "uint256",
          "name": "sent",
          "type": "uint256"
        },
        {
          "internalType": "uint256",
          "name": "minimum",
          "type": "uint256"
        }
      ],
      "name": "BelowMinimumPurchase",
      "type": "error"
    },
    {
      "inputs": [],
      "name": "CannotRecoverWealthCoinAsForeignToken",
      "type": "error"
    },
    {
      "inputs": [],
      "name": "DirectPaymentsDisabled",
      "type": "error"
    },
    {
      "inputs": [],
      "name": "EnforcedPause",
      "type": "error"
    },
    {
      "inputs": [],
      "name": "ExpectedPause",
      "type": "error"
    },
    {
      "inputs": [
        {
          "internalType": "uint256",
          "name": "balance",
          "type": "uint256"
        },
        {
          "internalType": "uint256",
          "name": "required",
          "type": "uint256"
        }
      ],
      "name": "InsufficientGenesisFunding",
      "type": "error"
    },
    {
      "inputs": [],
      "name": "NoTokensToRecover",
      "type": "error"
    },
    {
      "inputs": [
        {
          "internalType": "address",
          "name": "owner",
          "type": "address"
        }
      ],
      "name": "OwnableInvalidOwner",
      "type": "error"
    },
    {
      "inputs": [
        {
          "internalType": "address",
          "name": "account",
          "type": "address"
        }
      ],
      "name": "OwnableUnauthorizedAccount",
      "type": "error"
    },
    {
      "inputs": [],
      "name": "ReentrancyGuardReentrantCall",
      "type": "error"
    },
    {
      "inputs": [
        {
          "internalType": "address",
          "name": "token",
          "type": "address"
        }
      ],
      "name": "SafeERC20FailedOperation",
      "type": "error"
    },
    {
      "inputs": [],
      "name": "SaleAlreadyFinalized",
      "type": "error"
    },
    {
      "inputs": [],
      "name": "SaleAlreadyOpened",
      "type": "error"
    },
    {
      "inputs": [],
      "name": "SaleNotFinalized",
      "type": "error"
    },
    {
      "inputs": [],
      "name": "SaleNotOpen",
      "type": "error"
    },
    {
      "inputs": [],
      "name": "TreasuryTransferFailed",
      "type": "error"
    },
    {
      "inputs": [
        {
          "internalType": "uint8",
          "name": "decimals",
          "type": "uint8"
        }
      ],
      "name": "UnsupportedTokenDecimals",
      "type": "error"
    },
    {
      "inputs": [
        {
          "internalType": "uint256",
          "name": "attemptedTotal",
          "type": "uint256"
        },
        {
          "internalType": "uint256",
          "name": "maximum",
          "type": "uint256"
        }
      ],
      "name": "WalletCapExceeded",
      "type": "error"
    },
    {
      "inputs": [],
      "name": "ZeroAddress",
      "type": "error"
    },
    {
      "anonymous": false,
      "inputs": [
        {
          "indexed": true,
          "internalType": "address",
          "name": "token",
          "type": "address"
        },
        {
          "indexed": true,
          "internalType": "address",
          "name": "recipient",
          "type": "address"
        },
        {
          "indexed": false,
          "internalType": "uint256",
          "name": "amount",
          "type": "uint256"
        }
      ],
      "name": "ForeignTokenRecovered",
      "type": "event"
    },
    {
      "anonymous": false,
      "inputs": [
        {
          "indexed": false,
          "internalType": "uint256",
          "name": "totalPolRaised",
          "type": "uint256"
        },
        {
          "indexed": false,
          "internalType": "uint256",
          "name": "totalWtcSold",
          "type": "uint256"
        },
        {
          "indexed": false,
          "internalType": "uint256",
          "name": "totalPurchases",
          "type": "uint256"
        },
        {
          "indexed": false,
          "internalType": "uint256",
          "name": "timestamp",
          "type": "uint256"
        }
      ],
      "name": "GenesisFinalized",
      "type": "event"
    },
    {
      "anonymous": false,
      "inputs": [
        {
          "indexed": false,
          "internalType": "uint256",
          "name": "timestamp",
          "type": "uint256"
        }
      ],
      "name": "GenesisOpened",
      "type": "event"
    },
    {
      "anonymous": false,
      "inputs": [
        {
          "indexed": false,
          "internalType": "uint256",
          "name": "timestamp",
          "type": "uint256"
        }
      ],
      "name": "GenesisPaused",
      "type": "event"
    },
    {
      "anonymous": false,
      "inputs": [
        {
          "indexed": false,
          "internalType": "uint256",
          "name": "timestamp",
          "type": "uint256"
        }
      ],
      "name": "GenesisResumed",
      "type": "event"
    },
    {
      "anonymous": false,
      "inputs": [
        {
          "indexed": true,
          "internalType": "address",
          "name": "previousOwner",
          "type": "address"
        },
        {
          "indexed": true,
          "internalType": "address",
          "name": "newOwner",
          "type": "address"
        }
      ],
      "name": "OwnershipTransferred",
      "type": "event"
    },
    {
      "anonymous": false,
      "inputs": [
        {
          "indexed": false,
          "internalType": "address",
          "name": "account",
          "type": "address"
        }
      ],
      "name": "Paused",
      "type": "event"
    },
    {
      "anonymous": false,
      "inputs": [
        {
          "indexed": true,
          "internalType": "uint256",
          "name": "purchaseNumber",
          "type": "uint256"
        },
        {
          "indexed": true,
          "internalType": "address",
          "name": "buyer",
          "type": "address"
        },
        {
          "indexed": false,
          "internalType": "uint256",
          "name": "polSpent",
          "type": "uint256"
        },
        {
          "indexed": false,
          "internalType": "uint256",
          "name": "wtcReceived",
          "type": "uint256"
        },
        {
          "indexed": false,
          "internalType": "uint256",
          "name": "cumulativePolSpent",
          "type": "uint256"
        },
        {
          "indexed": false,
          "internalType": "uint256",
          "name": "timestamp",
          "type": "uint256"
        }
      ],
      "name": "TokensPurchased",
      "type": "event"
    },
    {
      "anonymous": false,
      "inputs": [
        {
          "indexed": false,
          "internalType": "address",
          "name": "account",
          "type": "address"
        }
      ],
      "name": "Unpaused",
      "type": "event"
    },
    {
      "anonymous": false,
      "inputs": [
        {
          "indexed": true,
          "internalType": "address",
          "name": "recipient",
          "type": "address"
        },
        {
          "indexed": false,
          "internalType": "uint256",
          "name": "amount",
          "type": "uint256"
        }
      ],
      "name": "UnsoldTokensRecovered",
      "type": "event"
    },
    {
      "stateMutability": "payable",
      "type": "fallback"
    },
    {
      "inputs": [],
      "name": "GENESIS_ALLOCATION_WTC",
      "outputs": [
        {
          "internalType": "uint256",
          "name": "",
          "type": "uint256"
        }
      ],
      "stateMutability": "view",
      "type": "function"
    },
    {
      "inputs": [],
      "name": "MAX_PURCHASE_PER_WALLET",
      "outputs": [
        {
          "internalType": "uint256",
          "name": "",
          "type": "uint256"
        }
      ],
      "stateMutability": "view",
      "type": "function"
    },
    {
      "inputs": [],
      "name": "MIN_PURCHASE",
      "outputs": [
        {
          "internalType": "uint256",
          "name": "",
          "type": "uint256"
        }
      ],
      "stateMutability": "view",
      "type": "function"
    },
    {
      "inputs": [],
      "name": "WTC_PER_POL",
      "outputs": [
        {
          "internalType": "uint256",
          "name": "",
          "type": "uint256"
        }
      ],
      "stateMutability": "view",
      "type": "function"
    },
    {
      "inputs": [],
      "name": "buyTokens",
      "outputs": [],
      "stateMutability": "payable",
      "type": "function"
    },
    {
      "inputs": [
        {
          "internalType": "uint256",
          "name": "polAmount",
          "type": "uint256"
        }
      ],
      "name": "calculateTokenAmount",
      "outputs": [
        {
          "internalType": "uint256",
          "name": "",
          "type": "uint256"
        }
      ],
      "stateMutability": "view",
      "type": "function"
    },
    {
      "inputs": [],
      "name": "contractWtcBalance",
      "outputs": [
        {
          "internalType": "uint256",
          "name": "",
          "type": "uint256"
        }
      ],
      "stateMutability": "view",
      "type": "function"
    },
    {
      "inputs": [],
      "name": "finalizeGenesis",
      "outputs": [],
      "stateMutability": "nonpayable",
      "type": "function"
    },
    {
      "inputs": [],
      "name": "genesisAllocation",
      "outputs": [
        {
          "internalType": "uint256",
          "name": "",
          "type": "uint256"
        }
      ],
      "stateMutability": "view",
      "type": "function"
    },
    {
      "inputs": [],
      "name": "hasOpened",
      "outputs": [
        {
          "internalType": "bool",
          "name": "",
          "type": "bool"
        }
      ],
      "stateMutability": "view",
      "type": "function"
    },
    {
      "inputs": [],
      "name": "isFullyFunded",
      "outputs": [
        {
          "internalType": "bool",
          "name": "",
          "type": "bool"
        }
      ],
      "stateMutability": "view",
      "type": "function"
    },
    {
      "inputs": [],
      "name": "openGenesis",
      "outputs": [],
      "stateMutability": "nonpayable",
      "type": "function"
    },
    {
      "inputs": [],
      "name": "owner",
      "outputs": [
        {
          "internalType": "address",
          "name": "",
          "type": "address"
        }
      ],
      "stateMutability": "view",
      "type": "function"
    },
    {
      "inputs": [],
      "name": "pauseGenesis",
      "outputs": [],
      "stateMutability": "nonpayable",
      "type": "function"
    },
    {
      "inputs": [],
      "name": "paused",
      "outputs": [
        {
          "internalType": "bool",
          "name": "",
          "type": "bool"
        }
      ],
      "stateMutability": "view",
      "type": "function"
    },
    {
      "inputs": [
        {
          "internalType": "address",
          "name": "",
          "type": "address"
        }
      ],
      "name": "polPurchasedByWallet",
      "outputs": [
        {
          "internalType": "uint256",
          "name": "",
          "type": "uint256"
        }
      ],
      "stateMutability": "view",
      "type": "function"
    },
    {
      "inputs": [],
      "name": "purchaseCount",
      "outputs": [
        {
          "internalType": "uint256",
          "name": "",
          "type": "uint256"
        }
      ],
      "stateMutability": "view",
      "type": "function"
    },
    {
      "inputs": [
        {
          "internalType": "address",
          "name": "tokenAddress",
          "type": "address"
        },
        {
          "internalType": "address",
          "name": "recipient",
          "type": "address"
        }
      ],
      "name": "recoverForeignToken",
      "outputs": [],
      "stateMutability": "nonpayable",
      "type": "function"
    },
    {
      "inputs": [
        {
          "internalType": "address",
          "name": "recipient",
          "type": "address"
        }
      ],
      "name": "recoverUnsoldTokens",
      "outputs": [],
      "stateMutability": "nonpayable",
      "type": "function"
    },
    {
      "inputs": [],
      "name": "remainingAllocation",
      "outputs": [
        {
          "internalType": "uint256",
          "name": "",
          "type": "uint256"
        }
      ],
      "stateMutability": "view",
      "type": "function"
    },
    {
      "inputs": [
        {
          "internalType": "address",
          "name": "buyer",
          "type": "address"
        }
      ],
      "name": "remainingWalletAllowance",
      "outputs": [
        {
          "internalType": "uint256",
          "name": "",
          "type": "uint256"
        }
      ],
      "stateMutability": "view",
      "type": "function"
    },
    {
      "inputs": [],
      "name": "renounceOwnership",
      "outputs": [],
      "stateMutability": "nonpayable",
      "type": "function"
    },
    {
      "inputs": [],
      "name": "resumeGenesis",
      "outputs": [],
      "stateMutability": "nonpayable",
      "type": "function"
    },
    {
      "inputs": [],
      "name": "saleFinalized",
      "outputs": [
        {
          "internalType": "bool",
          "name": "",
          "type": "bool"
        }
      ],
      "stateMutability": "view",
      "type": "function"
    },
    {
      "inputs": [],
      "name": "saleOpen",
      "outputs": [
        {
          "internalType": "bool",
          "name": "",
          "type": "bool"
        }
      ],
      "stateMutability": "view",
      "type": "function"
    },
    {
      "inputs": [],
      "name": "tokenUnit",
      "outputs": [
        {
          "internalType": "uint256",
          "name": "",
          "type": "uint256"
        }
      ],
      "stateMutability": "view",
      "type": "function"
    },
    {
      "inputs": [],
      "name": "totalPolRaised",
      "outputs": [
        {
          "internalType": "uint256",
          "name": "",
          "type": "uint256"
        }
      ],
      "stateMutability": "view",
      "type": "function"
    },
    {
      "inputs": [],
      "name": "totalWtcSold",
      "outputs": [
        {
          "internalType": "uint256",
          "name": "",
          "type": "uint256"
        }
      ],
      "stateMutability": "view",
      "type": "function"
    },
    {
      "inputs": [
        {
          "internalType": "address",
          "name": "newOwner",
          "type": "address"
        }
      ],
      "name": "transferOwnership",
      "outputs": [],
      "stateMutability": "nonpayable",
      "type": "function"
    },
    {
      "inputs": [],
      "name": "treasury",
      "outputs": [
        {
          "internalType": "address payable",
          "name": "",
          "type": "address"
        }
      ],
      "stateMutability": "view",
      "type": "function"
    },
    {
      "inputs": [],
      "name": "wealthCoin",
      "outputs": [
        {
          "internalType": "contract IERC20",
          "name": "",
          "type": "address"
        }
      ],
      "stateMutability": "view",
      "type": "function"
    },
    {
      "inputs": [
        {
          "internalType": "address",
          "name": "",
          "type": "address"
        }
      ],
      "name": "wtcPurchasedByWallet",
      "outputs": [
        {
          "internalType": "uint256",
          "name": "",
          "type": "uint256"
        }
      ],
      "stateMutability": "view",
      "type": "function"
    },
    {
      "stateMutability": "payable",
      "type": "receive"
    }
  ],
  "bytecode": "0x6101006040523480156200001257600080fd5b5060405162001b2d38038062001b2d8339810160408190526200003591620002cb565b806001600160a01b0381166200006657604051631e4fbdf760e01b8152600060048201526024015b60405180910390fd5b6200007181620001ca565b5060017f9b779b17422d0df92223018b32b4d1fa46e071723d6817e2486d003becc55f00556001600160a01b0383161580620000b457506001600160a01b038216155b80620000c757506001600160a01b038116155b15620000e65760405163d92e233d60e01b815260040160405180910390fd5b6000836001600160a01b031663313ce5676040518163ffffffff1660e01b8152600401602060405180830381865afa15801562000127573d6000803e3d6000fd5b505050506040513d601f19601f820116820180604052508101906200014d91906200031f565b905060128160ff1611156200017b5760405163108d860b60e31b815260ff821660048201526024016200005d565b6001600160a01b03808516608052831660a0526200019e60ff8216600a62000460565b60c0819052620001b3906301406f406200046e565b60e052620001c06200021a565b5050505062000488565b600080546001600160a01b038381166001600160a01b0319831681178455604051919092169283917f8be0079c531659141344cd1fd0a4f28419497f9722a3daafe3b4186f6b6457e09190a35050565b620002246200027d565b6000805460ff60a01b1916600160a01b1790557f62e78cea01bee320cd4e420270b5ea74000d11b0c9f74754ebdbfc544b05a258620002603390565b6040516001600160a01b03909116815260200160405180910390a1565b62000291600054600160a01b900460ff1690565b15620002b05760405163d93c066560e01b815260040160405180910390fd5b565b6001600160a01b0381168114620002c857600080fd5b50565b600080600060608486031215620002e157600080fd5b8351620002ee81620002b2565b60208501519093506200030181620002b2565b60408501519092506200031481620002b2565b809150509250925092565b6000602082840312156200033257600080fd5b815160ff811681146200034457600080fd5b9392505050565b634e487b7160e01b600052601160045260246000fd5b600181815b80851115620003a25781600019048211156200038657620003866200034b565b808516156200039457918102915b93841c939080029062000366565b509250929050565b600082620003bb575060016200045a565b81620003ca575060006200045a565b8160018114620003e35760028114620003ee576200040e565b60019150506200045a565b60ff8411156200040257620004026200034b565b50506001821b6200045a565b5060208310610133831016604e8410600b841016171562000433575081810a6200045a565b6200043f838362000361565b80600019048211156200045657620004566200034b565b0290505b92915050565b6000620003448383620003aa565b80820281158282048414176200045a576200045a6200034b565b60805160a05160c05160e05161161e6200050f60003960008181610309015261096f0152600081816105c50152610ac50152600081816103ff0152610fdb0152600081816103720152818161066901528181610840015281816108e301528181610b7e01528181610c1001528181610e8501528181610fb0015261134d015261161e6000f3fe6080604052600436106101e75760003560e01c80637a9ccb4f11610102578063b154cd5a11610095578063d439390c11610064578063d439390c14610596578063e93c980d146105b3578063f2fde38b146105e7578063f7702fa91461060757610205565b8063b154cd5a14610543578063be8eef8e14610558578063c876b6d014610579578063d0febe4c1461058e57610205565b8063a24bcf46116100d1578063a24bcf46146104d8578063a2e684b2146104f8578063a5f0dea21461050d578063aebc34e41461052e57610205565b80637a9ccb4f1461046c57806385758cc7146104845780638da5cb5b1461049957806399288dbb146104b757610205565b80633dc9dc9c1161017a57806361d027b31161014957806361d027b3146103ed5780636cfa8bd814610421578063715018a61461044157806376a7c2961461045657610205565b80633dc9dc9c1461034b57806351409506146103605780635c975abb146103ac5780635e5cbcbe146103d757610205565b80632f146e90116101b65780632f146e90146102a85780632f8b532e146102ca57806332f1eb76146102f75780633d7cdbdb1461032b57610205565b8063117475831461021e5780632b85ed9c1461025e5780632c335e0e146102745780632c8b1a0a1461029257610205565b366102055760405163260a0f3760e01b815260040160405180910390fd5b60405163260a0f3760e01b815260040160405180910390fd5b34801561022a57600080fd5b5061024b6102393660046114d3565b60056020526000908152604090205481565b6040519081526020015b60405180910390f35b34801561026a57600080fd5b5061024b60035481565b34801561028057600080fd5b5061024b69010f0cf064dd5920000081565b34801561029e57600080fd5b5061024b60025481565b3480156102b457600080fd5b506102c86102c33660046114ee565b61061c565b005b3480156102d657600080fd5b5061024b6102e53660046114d3565b60046020526000908152604090205481565b34801561030357600080fd5b5061024b7f000000000000000000000000000000000000000000000000000000000000000081565b34801561033757600080fd5b506102c86103463660046114d3565b6107c7565b34801561035757600080fd5b5061024b610968565b34801561036c57600080fd5b506103947f000000000000000000000000000000000000000000000000000000000000000081565b6040516001600160a01b039091168152602001610255565b3480156103b857600080fd5b50600054600160a01b900460ff165b6040519015158152602001610255565b3480156103e357600080fd5b5061024b61015e81565b3480156103f957600080fd5b506103947f000000000000000000000000000000000000000000000000000000000000000081565b34801561042d57600080fd5b5061024b61043c3660046114d3565b61099d565b34801561044d57600080fd5b506102c86109eb565b34801561046257600080fd5b5061024b60015481565b34801561047857600080fd5b5061024b6301406f4081565b34801561049057600080fd5b506102c86109ff565b3480156104a557600080fd5b506000546001600160a01b0316610394565b3480156104c357600080fd5b506000546103c790600160b01b900460ff1681565b3480156104e457600080fd5b5061024b6104f3366004611521565b610ab8565b34801561050457600080fd5b506102c8610b0a565b34801561051957600080fd5b506000546103c790600160b81b900460ff1681565b34801561053a57600080fd5b506103c7610b5f565b34801561054f57600080fd5b5061024b610bf8565b34801561056457600080fd5b506000546103c790600160a81b900460ff1681565b34801561058557600080fd5b506102c8610c83565b6102c8610d3e565b3480156105a257600080fd5b5061024b6802b5e3af16b188000081565b3480156105bf57600080fd5b5061024b7f000000000000000000000000000000000000000000000000000000000000000081565b3480156105f357600080fd5b506102c86106023660046114d3565b6110d4565b34801561061357600080fd5b506102c861110f565b61062461119d565b61062c6111ca565b6001600160a01b038216158061064957506001600160a01b038116155b156106675760405163d92e233d60e01b815260040160405180910390fd5b7f00000000000000000000000000000000000000000000000000000000000000006001600160a01b0316826001600160a01b0316036106b9576040516379bbd8d160e01b815260040160405180910390fd5b6040516370a0823160e01b815230600482015282906000906001600160a01b038316906370a0823190602401602060405180830381865afa158015610702573d6000803e3d6000fd5b505050506040513d601f19601f82011682018060405250810190610726919061153a565b90508060000361074957604051635e4f582160e11b815260040160405180910390fd5b61075d6001600160a01b03831684836111e6565b826001600160a01b0316846001600160a01b03167fe75797be6bca4892dff387b21838426edbc9926d3cabb9df3964a98708b0612b836040516107a291815260200190565b60405180910390a350506107c360016000805160206115c983398151915255565b5050565b6107cf61119d565b6107d76111ca565b600054600160b81b900460ff16610801576040516303ba962560e51b815260040160405180910390fd5b6001600160a01b0381166108285760405163d92e233d60e01b815260040160405180910390fd5b6040516370a0823160e01b81523060048201526000907f00000000000000000000000000000000000000000000000000000000000000006001600160a01b0316906370a0823190602401602060405180830381865afa15801561088f573d6000803e3d6000fd5b505050506040513d601f19601f820116820180604052508101906108b3919061153a565b9050806000036108d657604051635e4f582160e11b815260040160405180910390fd5b61090a6001600160a01b037f00000000000000000000000000000000000000000000000000000000000000001683836111e6565b816001600160a01b03167f7a49e3b2124585de870447d13749b2902ff2dfd08f0bff5b97ec5108db9712ca8260405161094591815260200190565b60405180910390a25061096560016000805160206115c983398151915255565b50565b60006002547f00000000000000000000000000000000000000000000000000000000000000006109989190611569565b905090565b6001600160a01b03811660009081526004602052604081205469010f0cf064dd5920000081106109d05750600092915050565b6109e48169010f0cf064dd59200000611569565b9392505050565b6109f361119d565b6109fd6000611220565b565b610a0761119d565b600054600160b81b900460ff1615610a32576040516391702baf60e01b815260040160405180910390fd5b6000805461ffff60b01b1916600160b81b179055610a5a60005460ff600160a01b9091041690565b610a6657610a66611270565b600154600254600354604080519384526020840192909252908201524260608201527f8205bff418db2770daf5692834323cd5fef9c246041368d5f46c45c6035acf12906080015b60405180910390a1565b6000670de0b6b3a76400007f0000000000000000000000000000000000000000000000000000000000000000610af061015e8561157c565b610afa919061157c565b610b049190611593565b92915050565b610b1261119d565b610b1a6112cb565b6000805460ff60b01b19169055610b2f611270565b6040514281527f0b8658df8d34d1c407c08684dda88017c4bb9063b99caabc2c02a6e2716fe4a790602001610aae565b6000610b69610968565b6040516370a0823160e01b81523060048201527f00000000000000000000000000000000000000000000000000000000000000006001600160a01b0316906370a0823190602401602060405180830381865afa158015610bcd573d6000803e3d6000fd5b505050506040513d601f19601f82011682018060405250810190610bf1919061153a565b1015905090565b6040516370a0823160e01b81523060048201526000907f00000000000000000000000000000000000000000000000000000000000000006001600160a01b0316906370a0823190602401602060405180830381865afa158015610c5f573d6000803e3d6000fd5b505050506040513d601f19601f82011682018060405250810190610998919061153a565b610c8b61119d565b610c936112f6565b600054600160b81b900460ff1615610cbe576040516391702baf60e01b815260040160405180910390fd5b600054600160a81b900460ff1615610ce9576040516367d8dbd560e01b815260040160405180910390fd5b610cf1611320565b6000805461ffff60a81b191661010160a81b179055610d0e6113e5565b6040514281527f48addf14ec6eeb0b9864b20adc712275de8a475c12d88877a2e450e02d19b66790602001610aae565b610d466111ca565b610d4e6112cb565b600054600160b01b900460ff161580610d705750600054600160b81b900460ff165b15610d8e57604051631117739360e21b815260040160405180910390fd5b6802b5e3af16b1880000341015610dce5760405163032861c760e41b81523460048201526802b5e3af16b188000060248201526044015b60405180910390fd5b33600090815260046020526040812054610de99034906115b5565b905069010f0cf064dd59200000811115610e2957604051638951540b60e01b81526004810182905269010f0cf064dd592000006024820152604401610dc5565b6000610e3434610ab8565b90506000610e40610968565b905080821115610e6d5760405163197f856560e31b81526004810183905260248101829052604401610dc5565b6040516370a0823160e01b81523060048201526000907f00000000000000000000000000000000000000000000000000000000000000006001600160a01b0316906370a0823190602401602060405180830381865afa158015610ed4573d6000803e3d6000fd5b505050506040513d601f19601f82011682018060405250810190610ef8919061153a565b905082811015610f2557604051634a0a498960e01b81526004810182905260248101849052604401610dc5565b336000908152600460209081526040808320879055600590915281208054859290610f519084906115b5565b925050819055503460016000828254610f6a91906115b5565b925050819055508260026000828254610f8391906115b5565b92505081905550600160036000828254610f9d91906115b5565b90915550610fd790506001600160a01b037f00000000000000000000000000000000000000000000000000000000000000001633856111e6565b60007f00000000000000000000000000000000000000000000000000000000000000006001600160a01b03163460405160006040518083038185875af1925050503d8060008114611044576040519150601f19603f3d011682016040523d82523d6000602084013e611049565b606091505b505090508061106b576040516301c6e79f60e31b815260040160405180910390fd5b60035460408051348152602081018790529081018790524260608201523391907fedd5dddf6b67638efb0b5c96a5b6b35c81488ea0a7fb10e364603a3e7be45d2d9060800160405180910390a350505050506109fd60016000805160206115c983398151915255565b6110dc61119d565b6001600160a01b03811661110657604051631e4fbdf760e01b815260006004820152602401610dc5565b61096581611220565b61111761119d565b61111f6112f6565b600054600160b81b900460ff161561114a576040516391702baf60e01b815260040160405180910390fd5b611152611320565b6000805460ff60b01b1916600160b01b17905561116d6113e5565b6040514281527f1d061b08294334ecaee29905dc0c257d1355382beb464db5ecebdb0e6f380c9790602001610aae565b6000546001600160a01b031633146109fd5760405163118cdaa760e01b8152336004820152602401610dc5565b6111d2611421565b60026000805160206115c983398151915255565b6111f38383836001611451565b61121b57604051635274afe760e01b81526001600160a01b0384166004820152602401610dc5565b505050565b600080546001600160a01b038381166001600160a01b0319831681178455604051919092169283917f8be0079c531659141344cd1fd0a4f28419497f9722a3daafe3b4186f6b6457e09190a35050565b6112786112cb565b6000805460ff60a01b1916600160a01b1790557f62e78cea01bee320cd4e420270b5ea74000d11b0c9f74754ebdbfc544b05a2586112b33390565b6040516001600160a01b039091168152602001610aae565b600054600160a01b900460ff16156109fd5760405163d93c066560e01b815260040160405180910390fd5b600054600160a01b900460ff166109fd57604051638dfc202b60e01b815260040160405180910390fd5b600061132a610968565b6040516370a0823160e01b81523060048201529091506000906001600160a01b037f000000000000000000000000000000000000000000000000000000000000000016906370a0823190602401602060405180830381865afa158015611394573d6000803e3d6000fd5b505050506040513d601f19601f820116820180604052508101906113b8919061153a565b9050818110156107c357604051634a0a498960e01b81526004810182905260248101839052604401610dc5565b6113ed6112f6565b6000805460ff60a01b191690557f5db9ee0a495bf2e6ff9c91a7834c1ba4fdd244a5e8aa4e537bd38aeae4b073aa336112b3565b6000805160206115c9833981519152546002036109fd57604051633ee5aeb560e01b815260040160405180910390fd5b60405163a9059cbb60e01b60008181526001600160a01b038616600452602485905291602083604481808b5af1925060016000511483166114ab57838315161561149e573d6000823e3d81fd5b6000873b113d1516831692505b60405250949350505050565b80356001600160a01b03811681146114ce57600080fd5b919050565b6000602082840312156114e557600080fd5b6109e4826114b7565b6000806040838503121561150157600080fd5b61150a836114b7565b9150611518602084016114b7565b90509250929050565b60006020828403121561153357600080fd5b5035919050565b60006020828403121561154c57600080fd5b5051919050565b634e487b7160e01b600052601160045260246000fd5b81810381811115610b0457610b04611553565b8082028115828204841417610b0457610b04611553565b6000826115b057634e487b7160e01b600052601260045260246000fd5b500490565b80820180821115610b0457610b0461155356fe9b779b17422d0df92223018b32b4d1fa46e071723d6817e2486d003becc55f00a2646970667358221220ed068f4fae4ae259999b2535e6372ff71b833f413a9c73d6a07e8490f5f81ee364736f6c63430008180033",
  "linkReferences": {},
  "deployedLinkReferences": {}
}